:020000040800F2
:1000000020090020A502000867520008F9480008EE
:10001000655200085925000805630008000000002B
:100020000000000000000000000000002156000851
:100030005B250008000000006952000823560008F4
:10004000BF020008BF020008BF020008BF0200088C
:10005000BF020008BF020008BF020008BF0200087C
:10006000BF020008BF020008BF020008BF0200086C
:10007000BF020008BF020008BF020008BF0200085C
:10008000BF02000800000000BF020008BF02000815
:10009000BF020008BF020008BF020008BF0200083C
:1000A000BF020008A1560008BF020008BF020008F6
:1000B000AD560008B9560008BF020008BF0200088C
:1000C000BF020008BF020008BF020008BF0200080C
:1000D000BF020008F9620008BF020008BF02000862
:1000E000BF020008BF020008BF020008BF020008EC
:1000F000BF020008BF020008BF02000800000000A5
:1001000000000000BF02000800000000BF0200085D
:10011000BF02000800000000BF020008BF02000884
:10012000BF020008BF020008BF020008BF020008AB
:10013000BF0200080000000000000000BF0200082D
:10014000BF020008BF02000800000000000000001D
:10015000000000000000000000000000000000009F
:10016000000000000000000000000000BF020008C6
:10017000BF020008000000000000000000000000B6
:1001800000000000BF0200080000000000000000A6
:10019000000000000000000000000000000000005F
:1001A0000000000000000000BF020008BF020008BD
:1001B000BF020008BF020008BF02000800000000E4
:1001C00000000000BF020008000000000000000066
:1001D000BF020008BF02000800F002F800F052F869
:1001E0000AA090E8000C82448344AAF10107DA4592
:1001F00001D100F047F8AFF2090EBAE80F0013F092
:10020000010F18BFFB1A43F00103184700830000D9
:1002100020830000103A24BF78C878C1FAD852076A
:1002200024BF30C830C144BF04680C607047000070
:100230000023002400250026103A28BF78C1FBD8EF
:10024000520728BF30C148BF0B607047662906F0CF
:100250008B87642900F0D280002070471FB506F01C
:1002600076FF00F051FF04000020002106F0E2FCC0
:10027000401C60600020002106F0C6FCE0601FBD4D
:1002800010B510BD01F006FA1146FFF7E7FF06F0C2
:10029000FFFA01F063FC03B4FFF7F2FF03BC01F0C7
:1002A000C9FC00000948804709480047FEE7FEE70F
:1002B000FEE7FEE7FEE7FEE7FEE7FEE7FEE7FEE716
:1002C00004480549054A064B70470000915600084E
:1002D000D90100082003002020090020200500206B
:1002E0002005002053EA020C00F069802DE9F04B54
:1002F0004FF00006002B1FBFB3FA83F503FA05F495
:1003000024FA05F65E4012BF1643B2FA82F502FAED
:1003100005F4C5F120051EBF22FA05FC44EA0C04D1
:10032000203556EA044C4FEA144418BF641C4FF0C1
:1003300000084FF00009904271EB030C39D30029FB
:1003400019BFB1FA81F701FA07F6B0FA80F700FA9F
:1003500007F6C7F120071EBF20FA07FC46EA0C0685
:100360002037B6FBF4FCA7EB0507103F07F01F0B87
:10037000CBF120060CFA0BFB2CFA06F644BFB34671
:100380000026202FA4BF5E464FF0000B5BEA060C50
:1003900008BF4FF0010B19EB0B09ABFB027C48EBDC
:1003A0000608C01B06FB02CC0BFB03CC71EB0C0157
:1003B000C1E70B46024641464846BDE8F08B13B5FF
:1003C0004FF000004FF00001AFF30080BDE81C408B
:1003D000704700000FB41CB5074B06AA7B44694662
:1003E0000090059800F0C5FB0020694600F0D4FBA2
:1003F0001CBC5DF814FB0000B90700002DE9F041BA
:100400000646002410687529314616A510D0AFF3B2
:100410000080002802DA404213A507E031688A070D
:1004200001D512A502E0490704D511A5012401E078
:10043000AFF3008000210A2206F1240709E0B0FB97
:10044000F2FCB0FBF2F302FB1C003030785418468B
:10045000491C0028F3D123462A463046BDE8F04126
:1004600000F019B9000000002D0000002B00000072
:10047000200000002DE9F0474FF0000A89460446AD
:10048000C0F820A02046E1688847002876D02528BB
:1004900006D0D4E901219047206A401C2062F1E790
:1004A000E168204600258847C4F81CA006460027BE
:1004B000C4F818A02A2E09D0304606F064F838B3E4
:1004C00004EB8708303EC8F8186019E059F8041B9F
:1004D000204604EB87029161E1688847012F0646B8
:1004E00018D1E069002820DA25F020051DE0D8F8B1
:1004F000180000EB800006EB40003038C8F8180008
:100500002046E1688847064606F03DF80028EED10F
:10051000012F0AD02E2E08D12046E16888477F1C83
:100520000646022F45F02005C4DBA069002803DA47
:10053000404245F00105A061E80701D025F0100513
:10054000B6B1A6F14100192802D8203645F400655D
:100550004A463146204625604D46FFF777FE58B1A2
:10056000012806D0ED1D25F0070000F1080989E7F4
:1005700004E005F1040985E730468AE7206ABDE812
:10058000F08700000FB400B58DB010A9099000915C
:100590000B904FF0FF300A9000200C9006487844F2
:1005A0000690064878446A4607900F9909A800F01B
:1005B0007BFD0DB05DF814FB270B00003F0B000026
:1005C00010B5431C02E010F8011B71B18107FAD18C
:1005D0004FF0013202C88C1A8C4314EAC211F9D0D0
:1005E000C01A0A0603D0C01E10BDC01A10BD0A04EE
:1005F00001D0801E10BD0902FCD0401E10BD4FF07E
:1006000000020429C0F0128010F0030C00F01B80DF
:10061000CCF1040CBCF1020F18BF00F8012BA8BFED
:1006200020F8022BA1EB0C0100F00DB85FEAC17CB1
:1006300024BF00F8012B00F8012B48BF00F8012B64
:1006400070474FF0000200B5134694469646203995
:1006500022BFA0E80C50A0E80C50B1F12001BFF47B
:10066000F7AF090728BFA0E80C5048BF0CC05DF8E1
:1006700004EB890028BF40F8042B08BF704748BF2F
:1006800020F8022B11F0804F18BF00F8012B7047A3
:100690007047704770472DE9F0470D4699469246DE
:1006A000044600F124080168880604D5E06921F0B9
:1006B0001001216000E00120A84201DD471B00E09D
:1006C0000027A1697A1902EB0900081AA0612078B5
:1006D000C00602D42046AFF30080002608E0D4E92B
:1006E00001211AF806009047206A401C761C2062FF
:1006F0004E45F4DB2078C0060AD52046AFF30080D3
:1007000006E0D4E9012130209047206A401C206295
:10071000381EA7F10107F4DC07E0D4E9012118F83D
:1007200005009047206A401C2062281EA5F10105A3
:10073000F3DC2046AFF300802078000602D50220CB
:10074000BDE8F0870120FBE770472DE9FF4F0C461D
:100750001E464FF0FF378BB0D2E90001DDF8608014
:100760000A908A46C1F30A5505B93D46002108465C
:100770004FF00000BAF1000F00F4400005DA00EB82
:1007800080004FF4400101EA50004FEA9059B9F15E
:10079000010F00DDB9460A9850EA4A000ED044F62F
:1007A0001050A5F2FF3545432F14B8F1000F1ED0AD
:1007B0007542291E1EDDC9F100021CE0B8F1010FCF
:1007C0004FF0000001D0302103E0F24305E0215456
:1007D000401CB042FBDB30460022002121540B9923
:1007E000C1F80880C1E900200FB0BDE8F08FBD1B43
:1007F0006D1CDEE74A4600DA694206A800F0D4FE26
:1008000006AB93E8070003AB83E8070050460A995C
:1008100001F017FA8DE80700A0F500501F3800908E
:100820000398002D0ADD42F21F014A4608440023C6
:1008300003A90390684601F0C3FC09E0A0F500504D
:100840004A461F38002303A90390684601F0E2FCE2
:100850008DE807000004000C03D04FF0FF30410882
:1008600000E01046B8F1000F03D0002200921546B8
:100870001EE0751E05D400F04FFC303262556D1E2F
:10088000F9D5B3460122084302D000227F1C04E0C0
:100890002078302801D100227F1E002A099784D0B9
:1008A0001DE0112D07DA00F037FC303262556D1C67
:1008B00050EA0102F5D1084302D00098C8B10EE019
:1008C0000021681E05E0235C625C63542254401ED4
:1008D000491C8142F7DBAB46A81B401E0990002053
:1008E00004F80B000B98099AC0F80880C0E9002BA7
:1008F0007AE711264FF0000857E72DE9F04F8846B8
:100900000446D21D22F0070191B0D1E90001CDE9E2
:100910000A0105F0F8FC02460B98C00F01D02D200B
:1009200007E02068810701D52B2002E0202101EAA1
:10093000C000032A099001D0072A05DB034641467F
:10094000204600F037FC0BE12078800601D5E069F5
:1009500000E00620B8F1650F814606D0B8F1660FB9
:1009600018D0B8F1670F70D131E00020B9F1110F44
:10097000009001DB112301E009F101030AAA01A99A
:100980000CA8FFF7E2FEDDE90C70002609F1010575
:10099000834647E001204B4600904FF000470AAAEB
:1009A00001A90CA8FFF7D1FEDDE90DB00C995D4659
:1009B000002610B909F101000D18B9EB050003D4A8
:1009C000C0F1FF3609F10105A5EB09002BE0B9F1F3
:1009D000010F01DA4FF001090020B9F1110F009069
:1009E000484601DD112300E003460AAA01A90CA82C
:1009F000FFF7ABFEDDE90C704D46002683462078FC
:100A000000070AD4AB4500DA5D4601A8012D04DDDC
:100A1000411911F8011C302907D04F4502DA17F1AE
:100A2000040F04DA012082460FE06D1EEEE7002F6E
:100A300002DCED1B3E4403E0781CA84200DD7D1C77
:100A4000B81B00F1010A4FF000472078000703D4DB
:100A5000AA4501DB4FF0FF3A0021B7F1004F0DF13D
:100A600043088DF8431024D002202B23002F01DAF5
:100A70007F422D230A21021EA0F1010000DC5FB19C
:100A800097FBF1FC97FBF1F201FB1C7C17460CF184
:100A9000300C08F801CDEEE7A8F1010003702188C1
:100AA000090501D5452100E06521A0F1010800F804
:100AB000011C09980FA9A1EB0807FF1D00B1012037
:100AC000411901EBEA70A1693844081A401EA0617F
:100AD0002078C00602D42046AFF30080099828B1E0
:100AE000D4E901219047206A401C20622078C0068A
:100AF00022D52046AFF300801EE0002E04DBB34574
:100B000002DD01A8805D00E03020D4E9012190479A
:100B1000206A401C2062761CAAF101005FEA000AEC
:100B20000AD100F0F1FAC0680168405CD4E9012103
:100B30009047206A401C2062281EA5F10105DCDCDC
:100B400007E0D4E9012118F8010B9047206A401C06
:100B50002062381EA7F10107F3DC2046AFF30080C6
:100B6000032011B041E6000001694A1C02610878C7
:100B7000704700B58FB0CDE90131002105910549DD
:100B80007944CDE9031011466846FFF773FC0FB0B6
:100B900000BD0000E5FFFFFF0A6802F8010B0A60D4
:100BA000704700002DE9FF4F06468BB00878FF28FC
:100BB00006D0491C2D2805D000244FF0000908E07C
:100BC00000200CE00124F8E709EB8903491C00EB45
:100BD00043090878FF28F7D114B1C9F10000814614
:100BE000107800252C46AA4629462D2801D02B280E
:100BF00004D1521C2D2813D0002082468B46107839
:100C0000FF280FD04FF0000C0A21521CA5FB0178E1
:100C100004FB018105FB0C11C5194BEB0104EEE748
:100C20000120EAE7002108464FF00000BAF1000F6A
:100C300002D000EB80004008C0F38157012F01DD96
:100C40004FF0FF370E9955EA040009EB01080BD06D
:100C50004FF0020918F5FA7F16DA4FEACA70002F32
:100C6000706008DD012007E04FEACA70C6E900B0F5
:100C70000FB0BDE8F08F0020306000F049FAC0F8F6
:100C800000901821084616E0B8F5FA7F18DD002F0D
:100C900002DAF748784401E0F6487844D0E90010D9
:100CA000C6E9001040EACA70706000F031FAC0F87E
:100CB0000090142108460FB0BDE8F04F06F051BA7D
:100CC000002108464FF00000B8F10001099002DA57
:100CD000C7F1000200E03A4601DAC8F1000106A8B7
:100CE00000F062FC06AB93E8070003AB83E8070063
:100CF00044F23E005BEA04010090584604D144F2FD
:100D00001E012C465D460091210C0904014306D1C9
:100D10000099240444EA15442D041039009104F08C
:100D20007F41014306D10099240244EA15642D0253
:100D30000839009104F07041014306D10099240163
:100D400044EA15742D01091F009104F0404101434C
:100D500006D10099A40044EA9574AD00891E009163
:100D600004F00041084304D100986D196441401E0D
:100D700000904FF001033A466846B8F1000FCDE904
:100D8000014503A902DD01F05AFA01E001F02DFA54
:100D9000BAF1000F04460D4601D084F00044002152
:100DA00008464FF00000099940F2FF77484010F0E4
:100DB0000C0F07D124F00040284303D0C4F30A509D
:100DC000B84212D100F0A4F9C0F80090C4F30A5060
:100DD000B8420AD1A8487844D0E90010C6E900100A
:100DE00004F000410843706042E7C6E900543FE761
:100DF0002DE9FF4F1F464FF0000A4FF0FF384546E0
:100E000091B0D7E90146CDF83CA000F07DF9C0686B
:100E10000168405C1090B96912986D1C8847396A66
:100E2000814688470028F6D1B9F1FF3F0AD0002E4D
:100E300024F4D06411DDB9F12B0F08D0B9F12D0FD6
:100E40000BD102E0404615B013E744F48064B96961
:100E500012986D1C8847761E8146600504A901D54D
:100E60002D2000E02B20002E01F1010B0DF13008A8
:100E70008DF810003FDDB9F1690F08D0B9F1490FC5
:100E800005D0B9F16E0F02D0B9F14E0F1CD13B461F
:100E900001A8009580E85002DDE912126FF002000F
:100EA00006F0C8F9C11CCED10EE0B96912986D1CCC
:100EB000884781461398761E44F4007405600F98A5
:100EC000401C002E0F9016DDB9F1300FEDD0B9F1B6
:100ED000780F02D0B9F1580F0DD10F9801280AD11F
:100EE0003B46CDE90054DDE91212001F029606F0E0
:100EF0009FF9C11CA7D1109989453ED144F08004C7
:100F000006E01399681CAAF1010A44F40074086011
:100F1000B9696D1C1298761E884730288146F0D03A
:100F20002BE01099894505D1200603D4761E44F0A4
:100F3000800418E0484605F026FB08B3761E0DF144
:100F400023018B4544F4007408D2A9F130000BF85A
:100F5000010B200607D5AAF1010003E0200602D408
:100F60000AF101008246A00502D51399681C0860A9
:100F7000B96912986D1C88478146002ED1DC53E078
:100F8000002E51DDB9F1650F02D0B9F1450F4BD1FB
:100F9000A00549D5B9696D1C1298761E24F44074D9
:100FA0008847002E81460CDD2B2804D0B9F12D0F87
:100FB00007D144F48074B96912986D1C8847761E75
:100FC0008146E00501D52D2100E02B2108F8011B09
:100FD000CDF8008021E0761E0DF13901884544F4FA
:100FE00000740CD2A9F1300010F0FF0088F8000066
:100FF00002D10099884509D908F1010806E0E00509
:1010000001D51E4801E042F20F708246B96912987C
:101010006D1C8847814613980560002E04DD484604
:1010200005F0B1FA0028D6D1F96912988847FF2057
:1010300053468BF8000088F8000000200A900B90BF
:1010400004AA0CA90AA8FFF7ADFDA00502D46FF011
:101050000100F8E614F0240F12D0E0071CD1386824
:10106000DDE90A12031D3B600068C0E9001213E0CD
:101070009C7800008E78000052770000F1D8FFFFC6
:101080000AA9684605F06CFAE00705D13868009AAD
:10109000011D3960006802602846D4E602681144E8
:1010A0001378016018467047D16005497944516151
:1010B00004497944116200211161114600F0BAB867
:1010C000EDFFFFFFED000000426842B1016811F83A
:1010D000013B23B1521EC0E900121846704701219E
:1010E000C160881E704742685AB1C368016843B93D
:1010F00083688B4205D0491E521CC0E900120020B3
:1011000070474FF0FF30704700487047DC02002006
:1011100000487047BC02002030B5B0F10A024FEA27
:10112000900E71F100034EEA817EB0EB0E0061EB90
:1011300091014FEA101E4EEA017E10EB0E0041EBCA
:1011400011114FEA102E4EEA016E10EB0E0041EB2A
:1011500011214FEA104E4EEA014E10EB0E0041EB0A
:101160001141401841F100014FEAD00040EA4170BE
:101170004FEAD10110EB80054FEA810444EA9074F4
:1011800044EB01046D1944EB0404521BA3414FF0DE
:10119000000348BF0A3200D530BD401C41F10001B8
:1011A00030BD10B5044600F09BFA0068005D00F009
:1011B000010010BD2DE9F0411F46044603260168D9
:1011C000072A01F4006004DB08B116A505E016A5A6
:1011D00003E008B115A500E015A521F0100020607E
:1011E000A069C01EA0610FB1401EA0612046AFF3F0
:1011F00000804FB1D4E9012138469047206A401C55
:101200002062C01C206206E0206AFAE7D4E90121CE
:1012100015F8010B9047761EF8D22046AFF30080F8
:10122000BDE8F0814E414E006E616E00494E4600B1
:10123000696E66002DE9F34F4FF0000A0C465646E2
:101240008DB001200C9001F10C000B9062690B989D
:1012500001219047051E2DD0252D2CD0216A8847CD
:10126000C0B162690B9801219047216A8847002824
:10127000F7D16269411E0B98904700E0761CA16986
:101280000D988847216A88470028F7D1E1690D98B1
:101290008847DBE7A1690D988847A842074601D136
:1012A000761CD3E7E1690D9888477F1C02D1BAF11B
:1012B000000F6FD06CE162690B9800273D463946FC
:1012C00090472A2804D162690B9801219047012593
:1012D000DFF8D08262690B9801219047A0F13001BC
:1012E0000A290AD24745E5DC07EB870100EB4107F5
:1012F000303FDFD445F01005ECE7E90601D46FF08C
:1013000000476C280AD04C2814D0682815D06A28C9
:101310000DD074281CD07A281AD01DE062690B9871
:10132000012190476C2802D045F0040514E045F0F7
:1013300002050DE045F020050AE062690B980121E5
:101340009047682802D045F0080505E045F400659F
:1013500062690B9801219047C4E9015765283DD087
:1013600019DC58287AD00CDC452837D004DC252835
:1013700026D041289ED131E046282FD0472899D148
:101380002CE05B2877D0612828D063287CD06428A3
:1013900023D15AE0F7E06F2848D008DC66281DD03A
:1013A00067281BD0692821D06E2816D127E0702825
:1013B00045D0732868D0752847D078280DD14DE0E6
:1013C000A1690D988847252805463FF469AFE16972
:1013D0000D9888476D1C3FF46AAFD9E00D992346FC
:1013E0006A466FF0010005F021FFC6E045F04000BD
:1013F00023464FF000026060A80736D43EE0E807BD
:101400007FF447AF2068011D21600068290501D5E0
:1014100006701BE7290701D5068017E7A90703D542
:10142000F117C0E9006111E706600FE745F04000E1
:1014300023464FF008026060A80716D41EE040F66D
:101440000E0125EA0100606016E045F040002346E9
:101450004FF00A026060A80707D40FE045F0400093
:101460006060A80708D5234610220D996FF001008F
:10147000AFF3008081E007E0102223460D996FF062
:101480000100AFF3008078E04FF0000963284F4679
:10149000C8464B46CB4602D05B2807D039E02079BE
:1014A000C00601D40120A060012732E06269D4F8AF
:1014B0000CB00B98012190475E2807D14FF001092D
:1014C00049466269D4F80CB00B989047216939B944
:1014D00000210A4603AB43F82120491C0829FADB06
:1014E000D8B3216949B308F1010862690B98012159
:1014F00090475D28F4D1B9F1000F09D0002003A96D
:1015000051F82020D24341F82020401C0828F7DB66
:1015100003AB2069002820794FEA40701ED05B465B
:101520002246CDF80080CDE901970D9900286FF093
:10153000010020DAAFF300801FE0C11703AA00EB1F
:10154000D1614B1121F01F0102EB8302411A136894
:101550000120884003431360C7E719E00D99224634
:1015600000286FF00100009702DAAFF3008004E07A
:10157000AFF3008001E0AFF3008000280ADA401CDE
:1015800006D10C9820B14FF0FF300FB0BDE8F08FBE
:101590005046FAE7E90701D10AF1010A06440020A2
:1015A0000C9053E6CCCCCC0C2DE9F0478146164686
:1015B0008AB0354878440DC88DE80D00324878442B
:1015C000801C03AC0DC884E80D0041F69B30084434
:1015D000372190FBF1F290FBF1F5A5F1800501FBBD
:1015E00012041B3C02D56442012000E00020DFF819
:1015F00098A080460027FA44AAF1BE0A0EE0E00750
:101600000AD03246684607EB470101230AEB810105
:1016100000F000FE8DE8070064107F1C002CEED166
:10162000194F7F44AE3F19E0E80715D007EB0410CF
:101630000DF1180A90E80E008AE80E00C068F0422A
:1016400001D1981908903246012306A903A800F099
:10165000E1FD03AB83E807006D10641C002DE3D1AE
:101660004FF0010332466946B8F1000F03A802D0DB
:1016700000F0A6FD01E000F0CDFDC9E90001C9F8C8
:1016800008200AB0BDE8F0873C6F000000487047B2
:10169000BC0200207546FFF7F9FFAE46050069461B
:1016A000534620F00700854618B020B5FEF708FE27
:1016B000BDE820404FF000064FF000074FF0000853
:1016C0004FF0000B21F00701AC46ACE8C009ACE8D4
:1016D000C009ACE8C009ACE8C0098D4670470000FD
:1016E00010B5FFF711FD001D10BD00BF49550000EA
:1016F00010B5FFF70DFD006810BD10B50446FFF7EB
:1017000007FD046010BD00002DE9FF4F1F464FF09C
:101710003C0987B04FF00042DDE9141001F10108E7
:10172000DDF858A002EA405003900020059083465F
:10173000054604460490B969461E08988847AAF1F0
:10174000010A0290BAF1000F3BDD02982E2815D055
:10175000102100F060FA00282EDB4FF0010B0599F4
:10176000014317D0B9F1000F0BDB4A46C11700F057
:101770003FFA05430C43A9F1040905E00120049058
:101780000BE008B145F0010501200590049820B94F
:10179000361D02E0049800B1361FB969089808F1B7
:1017A00001088847BBF1000FAAF1010A0290C9D0D5
:1017B0000999C1F80080C5E70298702808D0502820
:1017C00006D0F96908988847BBF1000F14D04FE0A4
:1017D000002002900120BBF1000F049009D0B969EC
:1017E000089808F101088847AAF10109B9F1000F2A
:1017F00007DCF969089888476FF001000BB0BDE875
:10180000F08F2B2804D02D280CD14FF0FF300490FE
:10181000B969089808F101088847A9F10109B9F1E7
:10182000000FE6DD411CE4D00A2100F0F4F90028A5
:10183000DFDB029908F1010801EB810100EB4100B7
:101840000290B969089888470A2100F0E4F9099ADA
:10185000A9F10109B9F1000FC2F8008001DD0028EB
:10186000E7DAF969089888470499029800FB01664D
:1018700055EA040004D004F04041090002D006E01B
:10188000039898E0A40044EA9574AD00B61E04F0F5
:101890000041080002D16D196441761E159810F0C0
:1018A000240F03D04FF00B095C4803E04FF02809E8
:1018B0006FF07D008246564507DAAAEB060189449F
:1018C000B9F1410F01DD4FF0410901200021A9F1DB
:1018D000010200F08DF9024628400B4621400843E2
:1018E00001D0012100E00021501E029143F1FF319F
:1018F00028402140084301D0012000E00020029947
:10190000834651EA0B014FD0002108464FF00000FA
:10191000039900F4400039B100EB80004FF440011E
:1019200000EBD07001EA60008015012802DD4FF065
:10193000FF3000E013D0401C36D0029860B3BBF1FA
:10194000000F0CD14A460120002100F051F9284037
:101950002140084301D0012000E00020E0B1012037
:101960004A46002100F044F9034640190A46614105
:101970002D1A8C4111D3B9F1400F09DD159810F0E3
:10198000240F02D0AAF1340603E0AAF1170600E002
:10199000761C00254FF0004406E05B1E42F1FF324A
:1019A00020EA030521EA0204CAF10100B04206DA86
:1019B0001B49039808430190002000900EE0039A11
:1019C000C4F3D321E80A0A43164940EA44500A43C3
:1019D0003146CDE90002684604F0CBFD159810F0C1
:1019E000240F0BD01598C00715D13868DDE9001217
:1019F000031D3B600068C0E900120CE002A86946C4
:101A000004F0AEFD1598C00705D13868029A011D93
:101A10003960006802604046F0E6000002FCFFFF0B
:101A20000000F07F0000F03F2DE9FF4F92461D4679
:101A300085B04FF00041DDE9124BDDE914727F1EE5
:101A400001EA4B50414940F0FF4940EA01080021BA
:101A500022F020004928049102D04E2828D04CE0E2
:101A60003BA0012607C88DE80700A9690698641CF9
:101A700088477F1E014606D41DF8060018B121F0E4
:101A8000200181420BD0E96906988847032E34D0A3
:101A9000082E32D06FF0010009B0BDE8F08F761C3F
:101AA000032E01D0082EE0D1601CCAF80000DCE74C
:101AB000A9690698641C88477F1E2AD420F020005C
:101AC000412826D1A9690698641C88477F1E20D426
:101AD00020F020004E281CD1A9690698641C884774
:101AE0007F1E48F4002849F48009CAF8004001D458
:101AF000282806D0E969069888475FEACB7012D09B
:101B000022E0A9690698641C88477F1E01D400283A
:101B100003DAE96906988847BCE72928F1D1641CF3
:101B2000CAF80040E9E71BF0240F07D028680499A1
:101B3000031D2B600068C0E9001805E02868021D3D
:101B40002A600068C0F800902046A5E70000F07FFA
:101B5000494E46494E4954590000000010B504460C
:101B6000AFF300802046BDE81040FEF794BB0000B4
:101B70004FF0013C50F8042B51F8043B9A4221D11C
:101B8000A2EB0C03934313EACC1317D150F8042BA8
:101B900051F8043B9A4215D1A2EB0C03934313EA8C
:101BA000CC130BD150F8042B51F8043B9A4209D1C5
:101BB000A2EB0C03934313EACC13DBD04FF00000ED
:101BC000704700BFD01A01BAB1FA81F101F01801D3
:101BD00022FA01F0CB40C1F12001DBB2C0B2C01A41
:101BE0002CFA01F3D11A914311EAC311E6D17047DF
:101BF000B2F120030AD5C2F1200301FA02F120FA62
:101C000003F300FA02F041EA0301704700FA03F11E
:101C10004FF0000070473A2800D2303820F0200200
:101C2000412A01D3A2F13700884201D34FF0FF309F
:101C30007047000001491820ABBEFEE726000200F5
:101C400070475FEA400C08BF91F0000F4FEA8C2309
:101C50004FEAC12243EA51514FEA1C5018BF00F528
:101C6000F0404FEA300018BF41F000415FEA6C5C81
:101C700000F02980BCF1FF3F08BF40F08040704772
:101C8000130C06BF12044FF0100C4FF0000C130E93
:101C900004BF12020CF1080C130F04BF12010CF167
:101CA000040C930F04BF92000CF1020CD30F04BF7D
:101CB00052000CF1010C11464FF00002A0F11F0080
:101CC000A0EB0C00704711F0004F08BF704731F0D7
:101CD00000413FF4D5AF0B0C06BF09044FF0100CC8
:101CE0004FF0000C0B0E04BF09020CF1080C0B0F97
:101CF00004BF09010CF1040C8B0F04BF89000CF127
:101D0000020CCB0F04BF49000CF1010CCCF12003F5
:101D1000A0EB0C0022FA03F302FA0CF241EA0301F1
:101D200000F10100704720F07F4C80EA030023F0AF
:101D30007F47ACEB070303F57C5300F0004003F151
:101D4000FF032DE980494FEA154B09B44FEA1443CC
:101D500025EA0B4E24EA03480FF2042606EB13276C
:101D600049083E785FEA320203FB0667C7F50007C1
:101D700007FB06F64FEA54374FEAD64606F102064D
:101D800007FB066CCCF1005C4FEA1C472CEA074CC1
:101D900007FB06F40CFB06F504EB15464FEA961616
:101DA00034BF00204FF000404FEAD13706FB07FC5C
:101DB0004FEA1C4C0CFB0BF7D21B03FB0CF761EB3F
:101DC00007010CFB0EF7B0EB074072EB17420CFB60
:101DD00008F734BFA2EB0742B2EB074261EB1741B1
:101DE0004FEA0C444FEA910706FB07FC4FEA1C4CF4
:101DF0000CFB0BF7B0EBC74072EB573203FB0CF751
:101E000034BFA2EBC742B2EBC74261EB57310CFBC8
:101E10000EF7B0EBC70072EB57720CFB08F734BF3C
:101E2000A2EBC702B2EBC70261EB5771039F4FEA07
:101E3000816141EA921104EBCC044FEAD1374FEAB9
:101E4000826206FB07FC42EA90124FEA80604FEA8A
:101E50001C4C0CFB0BF7D21B03FB0CF761EB0701CF
:101E60000CFB0EF7B0EB074072EB17420CFB08F7C8
:101E700034BFA2EB0742B2EB074261EB17414FEAD6
:101E80008C554FEA910704EB9C2406FB07FC4FEAB4
:101E90001C4C0CFB0BF7B0EBC74072EB573203FB4B
:101EA0000CF734BFA2EBC742B2EBC74261EB57312C
:101EB0000CFB0EF7B0EBC70072EB57720CFB08F788
:101EC00034BFA2EBC702B2EBC70261EB577115EB4F
:101ED0004C254FEA816141EA92114FEA82624FEA52
:101EE000D13742EA901206FB07FC44F100044FEAA6
:101EF00080604FEA1C4C0CFB0BF7D21B03FB0CF76A
:101F000061EB07010CFB0EF7B0EB074072EB1742D9
:101F10000CFB08F734BFA2EB0742B2EB074261EBC0
:101F2000174115EB1C154FEA813141EA92414FEA06
:101F3000823242EA90424FEA80304FEA0C7644F116
:101F4000000448EA03434EEA0B484FF0000EB2EBA0
:101F5000080C71EB030724BF624639464EEB0E0EA8
:101F60004FF0000B0018524149414BEB0B0BB2EB09
:101F7000080C71EB03077BF1000B24BF6246394666
:101F80004EEB0E0E4FF0000B0018524149414BEB47
:101F90000B0BB2EB080C71EB03077BF1000B24BFBA
:101FA000624639464EEB0E0E51EA020718BF46F064
:101FB000010616EB0E7655F1000254F1000103D52F
:101FC000BDE88901BDE80088BDE88901BDE8004899
:101FD000B619524141EB0101A3F101037047808022
:101FE0007F7E7D7C7B7A7978777676757473727173
:101FF00071706F6E6E6D6C6C6B6A6A69686867662B
:1020000066656464636362616160605F5F5E5E5DBC
:102010005D5C5C5B5B5A5A59595858575756565530
:1020200055555454535352525251515050504F4F92
:102030004F4E4E4D4D4D4C4C4C4B4B4B4A4A4A49E2
:102040004949484848474747474646464545454425
:1020500044444443434343424242424141410000DD
:1020600046EA0646A3F570534FEA164646EA42563C
:102070004FEAD22242EA415210B54FEAD121A3F1F0
:10208000010300F02FF820F0004000F1020C00F0F6
:10209000004701EB00501146BCF5006F40EA070015
:1020A00000D210BDBAF1000F0AD01CB503B44FF036
:1020B00004004FF004014FF000000FBCBDE81040D9
:1020C0004FF00001BBF1010FB9BF04484FF0FF31E1
:1020D0000348002140EA070010BD00BFFFFFEF7F6B
:1020E0000000F07F002B9C4630D477002BD01CB52D
:1020F0004FEA370703B44FF010004FF01001BAF168
:10210000000F06D0BCF1000FDCBF40F0080040F02B
:1021100008014FF000000FBCBDE810400BF1010BAF
:10212000BBF1010F08BF5FEA170722BF12F10102DE
:1021300011F101014FF0004143F1000300F00040B4
:1021400043EA00007047F9D35708D0E746EA06464D
:1021500013F1400F4FEA16461FDD13F1200FDFBFCA
:1021600016430A46002120335B42BED0C3F120074C
:1021700046EA064602FA07F74FEA164646EA070617
:10218000C3F1200722FA03F201FA07F721FA03F15B
:102190004FF0000342EA0702A7E746EA020646EAD2
:1021A00006464FEA164646EA0106BCBF46EA064620
:1021B000360C4FF000034FF000024FF0000194E79F
:1021C0002DE9804C9A46934670B491E8380007C8D0
:1021D00031EA400C48BF34EA430C03D5FFF7A3FDB6
:1021E000FFF780FFF0BCBDE8008C2DE9804C9A46DB
:1021F000934670B491E8380007C831EA400C48BFF4
:1022000034EA430C03D5FFF78EFDFFF729FFF0BC3E
:10221000BDE8008C2DE9804C9A46934670B491E855
:10222000380007C810F0804F08BF13F0804F03D16B
:1022300000F01AF8FFF756FFF0BCBDE8008C2DE95E
:10224000804C9A46934670B491E8380007C810F065
:10225000804F08BF13F0804F03D100F005F8FFF75F
:10226000FFFEF0BCBDE8008C20F07F4780EA030051
:1022700023F07F4C07EB0C03A3F57C5300F00040E8
:10228000A3F1FE0392F0000F00F0B38095F0000F71
:1022900000F077802DE901494FEA11404FEA1446DA
:1022A00021EA004800FB06FC24EA064708FB06F684
:1022B00007FB08F800FB07F718EB06484CEB164C39
:1022C0004FEA124B18EB07484FEA15464CEB174004
:1022D00022EA0B4E0BFB06FC25EA06470EFB06F630
:1022E00007FB0EFE0BFB07F71EEB064E4CEB164CE6
:1022F0004FF000061EEB074E4CEB174B18EB0B088C
:1023000040F1000018EB0E0B58EB000840F1000004
:102310008F1A4FF000013CBFC943661B14BFB5EBD9
:10232000040C00213CBFC943F61B4FEA17444EEA98
:102330008E0E27EA04454FEA1C4704FB07622CEA8D
:10234000074C05FB07F70CFB05F604FB0CFC16EB32
:10235000074642EB174216EB0C4642EB1C421BEBC6
:10236000060658EB0202414146EA9E0601D5BDE849
:102370000189B619524141EB0101A3F10103BDE806
:1023800001894FEA14454FEA114724EA054621EA3C
:10239000074C05FB07F406FB07F70CFB06F105FBF2
:1023A0000CFC11EB074144EB17444FEA124711EBC9
:1023B0000C4144EB1C4422EA074C05FB07F206FBE8
:1023C00007F70CFB06F605FB0CFC16EB074642EB89
:1023D000174216EB0C4642EB1C456A1854F10001FB
:1023E00048BF7047B619524141EB0101A3F1010307
:1023F000704795F0000F37D04FEA11424FEA14476B
:1024000021EA024624EA074C02FB07F106FB07F724
:102410000CFB06F402FB0CFC14EB074441EB1741E8
:102420004FEA154714EB0C4441EB1C4125EA074CDD
:1024300002FB07F506FB07F70CFB06F602FB0CFC9C
:1024400016EB074645EB174516EB0C4645EB1C42D1
:10245000121951F1000148BF7047B619524141EBC2
:102460000101A3F1010370474FEA14454FEA1147F8
:1024700024EA054621EA074C05FB07F106FB07F7AE
:102480000CFB06F24FF0000605FB0CFC12EB0742BA
:1024900041EB174112EB0C4251EB1C4148BF704716
:1024A000921841EB0101A3F101037047F8B504460E
:1024B000002000902068816811F0010F41D18168EF
:1024C000214A11422ED18168D5432940491C81609F
:1024D0001E48806800F0E07000020DD51C481D49C0
:1024E0000068B0FBF1F0401C00EB4000800000E011
:1024F000401E00900028FBD100F078FE06461BE04D
:10250000816811F0010F03D181682940491C816065
:1025100000F06CFE801B02280ED920680068C043C2
:10252000C00709D0E06D40F01000E065206E40F07B
:10253000010020660120F8BD20680168C943C90771
:10254000DED10020F8BD00003F00008000030050F5
:1025500028000020400D0300FEE77047002240F6EF
:10256000B83306E00021491C89B29942FBD3521CC2
:1025700092B28242F6D3704770B515460E460446B5
:1025800002F038FAA02002F0F6F902F069FAF0B28F
:1025900002E000BF14F8010B02F0EDF902F060FA5E
:1025A0006D1EADB2F6D202F040FABDE870400520D3
:1025B00000F0DCBC72B6FEE72DE9F047044690F867
:1025C00058009CB00E464FF00009012815D001209C
:1025D00084F8580000251795189520684FF0A048FA
:1025E00040450ED1284F0097384602F04BFC8246FA
:1025F000206802F047FC60B10EE002201CB0BDE88C
:10260000F087E06D40F02000E06584F8585001202C
:10261000F4E7BAF1000F09D0E06D40F02000E0656A
:102620004FF0010984F858504846E7E717483268E8
:1026300040F61F71002A826822F4604216D094F896
:10264000383042EA433273681A438260D8F808206F
:10265000BB6802F0010203F001031A43E2D1B36840
:1026600032681A4383688B431A430BE08260D8F8C0
:102670000820BB6802F0010203F001031A43D1D124
:1026800082688A438260CDE7000100500003005059
:102690002DE9F84F00270446009790F85800DFF81E
:1026A000E0930D46B846012811D0012684F8586001
:1026B000206802F0E3FB60B1E06D40F02000E065CF
:1026C0005FF0010784F858803846BDE8F88F022093
:1026D000FBE7D5E900210C23206803EA9113184495
:1026E000036B01F01F014FF01F0C0CFA01FCC2F349
:1026F000846223EA0C038A4013430363206802F0D8
:10270000BDFB8246206802F0B5FB5AEA00003CD1CE
:10271000AA6829682068B2F1004F37D002F0B6FBF2
:102720002068416921F00041416120686969C268FF
:10273000C2F3C102520091402A69042A31D000EB51
:1027400082002B68026EDFF83CC303F0F84302EA14
:102750000C020B431A4342F00041016620682A69CB
:10276000A96900EB8200026E22F080720A430266C1
:10277000297F22682869012910D0002102EB8000FE
:10278000026E22F000720A4302667DE0002202F02F
:102790007DFB2068416941F00041C5E74FF00071C1
:1027A000ECE7002102F060FB400320684FF00001DD
:1027B00072D002F059FB90FAA0F0B0FA80F12868CC
:1027C00042036ED090FAA0F0B0FA80F0814204D1BA
:1027D00000221146206802F068FB0121206802F007
:1027E00043FB400320684FF001015DD002F03CFB49
:1027F00090FAA0F0B0FA80F12868420359D090FA1C
:10280000A0F0B0FA80F0814204D1002201212068BA
:1028100002F04BFB0221206802F026FB40032068F7
:102820004FF0020148D002F01FFB90FAA0F0B0FA7E
:1028300080F12868420344D090FAA0F0B0FA80F00A
:10284000814204D100220221206802F02EFB0321E4
:10285000206802F009FB400320684FF0030133D0E9
:1028600002F002FB90FAA0F0B0FA80F1286842036F
:102870002FD090FAA0F0B0FA80F0814204D100226B
:102880000321206802F011FB2068816811F0010F1C
:1028900022D0ACE000E004E002F0E6FAC0F384618C
:1028A0008DE7C0F3846091E702F0DEFAC0F3846143
:1028B000A2E7C0F38460A6E702F0D6FAC0F3846111
:1028C000B7E7C0F38460BBE702F0CEFAC0F38461DF
:1028D000CCE7C0F38460D0E72A7B296850F8B03F8A
:1028E000C1F3120C23EA0C0302F0180C664A22FA18
:1028F0000CF20A4013430360E968494577D1286820
:1029000041031CD090FAA0F1B1FA81F1491C01F009
:102910001F0109294FEA403132D8002912D000BFE7
:1029200090FAA0F1B1FA81F101F1010101F01F016A
:1029300006FA01F609D100BFC0F3846109E0C0F3D3
:102940008461E3E7C0F38461EEE790FAA0F1B1FAA5
:1029500081F101F1010101F01F0146EA816102D11B
:10296000C0F3846003E090FAA0F0B0FA80F000F1C8
:10297000010000F01F0000EB400041EA005132E08E
:1029800000290ED090FAA0F1B1FA81F101F1010114
:1029900001F01F0106FA01F606D100BFC0F3846101
:1029A00006E0C0F38461F1E790FAA0F1B1FA81F199
:1029B00001F1010101F01F0146EA816102D1C0F37A
:1029C000846003E090FAA0F0B0FA80F000F101001A
:1029D00000F01F002D4A00EB400002EB005041EADE
:1029E000000141F00071AA68206802F04FFA2848FF
:1029F0002A6802423FF466AE26488168264B01F001
:102A0000E0719A4202D0254B9A421CD10B021AD493
:102A10002268B2F1A04F7FF455AE826841F4000104
:102A200022F0E0720A4382601D481E490068B0FB34
:102A3000F1F0401C00EB4000800000E0401E0090E0
:102A40000028FBD13EE6184D184BAA4207D1CD0114
:102A500005D422689A42F5D041F0807109E0144D06
:102A6000AA42EFD14A02EDD422689A42EAD041F458
:102A70008001826822F0E0720A43826022E6000050
:102A800000007F4000F0FF03FFFF0700000020FE72
:102A90000000088000030050000021C31000C09017
:102AA00028000020400D0300000052C70001005024
:102AB000000084CB0068006C70470000F8B54FF050
:102AC000000504002E46009502D0E06D10B107E02D
:102AD0000120F8BD204600F0EBF8266684F8586027
:102AE00020688168C1F3407119B18168684A11405A
:102AF000816020688168C1F3007189B98168654A85
:102B0000114041F080518160634864490068B0FB26
:102B1000F1F04000801C00E0401E00900028FBD136
:102B200020688168C1F3007141B9E16D41F0100185
:102B3000E165216E41F001012166012502F09EF957
:102B4000E16DC90600D430B1E06D40F01000E065E1
:102B500001252846F8BDE06D20F4807040F00200A9
:102B6000E0652068806810F0010F11D14FF0A0409F
:102B700080684B4900F00100896801F001010843B9
:102B800006D148486168826822F47C120A43826058
:102B9000E168E06B627F0843A16841EA4231084383
:102BA00094F8241040EA0140012904D1218D3E4AC5
:102BB00002EB41410843E16A29B101F47871226BCB
:102BC000014342EA01002268D168384B19400143B1
:102BD000D16020680169626B21F04061114301619D
:102BE000206802F047F970BB207F94F8381080030A
:102BF00040EA41022168C86844F202039843104346
:102C0000C86020690028206801690AD041F4803139
:102C10000161206850F8C01F22696FF30D01114354
:102C200007E021F480310161206850F8C01F6FF384
:102C30000D01016094F8400001280CD02068016962
:102C400021F001010161606901282068016B21F018
:102C50000F0111D013E0D4E911010843D4E9131294
:102C60001143084321680A6940F2FC739A431043F8
:102C700040F001000861E6E7226A521E1143016339
:102C8000E06D20F0020040F00100E06561E7000027
:102C9000C0FFFF5FC0FFFF7F28000020400D030042
:102CA00000010050000300500000FEFF0740F0FF4D
:102CB0002DE9F04397B00446142111A8FDF7C1FC9B
:102CC00044216846FDF7BDFC4FF0005021682D4DB2
:102CD0000327DFF8B49086132C4C4FF00008B1F1B5
:102CE000A04F10D02A4A914248D100960F906846D2
:102CF00000F07AFB08B1FFF75DFC2868401C2860F3
:102D0000012824D02BE000960F90684600F06CFB61
:102D100008B1FFF74FFC2868401C2860012807D144
:102D2000E06C40F40050E064E06C00F40050169059
:102D3000E06C40F00200E064E06C11A900F00200D9
:102D400016904FF4805081E88101484614E0E06C11
:102D500040F40050E064E06C00F400501690E06C29
:102D600040F00200E064E06C11AA00F0020016904E
:102D700082E8C00111A9484600F00AF917B0BDE881
:102D8000F0830000180000200004004800100240FA
:102D9000000100502DE9F04104463848806800F0F9
:102DA0001F05206802F06AF818B102210846BDE844
:102DB000F08194F8580001280CD0012084F85800C4
:102DC0002046FFF773FB01004FF0000304D084F8A6
:102DD0005830EBE70220EAE7E06D40F601629043ED
:102DE00040F48070E065264A20684FF0A04690428B
:102DF00001D1374600E00746874200D01DB9E76D94
:102E000027F48017E765E76DFF0404D5276E27F0E8
:102E10000607276600E023661C27076084F8583001
:102E20002068904201D1334600E00346834215D02A
:102E3000A5B1052D12D0092D10D0E36D43F48013F8
:102E4000E365904200D13046C0688001AED5E06DA8
:102E500020F4005040F48050E065A7E7C26892017A
:102E600005D5E26D22F4005242F48052E265826898
:102E7000044B1A40121D826098E7000000030050C6
:102E800000010050C0FFFF7F10B590F825300021F1
:102E90000122022B03D00421C163012122E0036837
:102EA0001C6824F00E041C60836C1C6824F480747D
:102EB0001C6003681C6824F001041C6090F8443016
:102EC000046C03F01F0302FA03F36360D0E91334C8
:102ED0005C60436D33B11C6824F480741C60D0E9DD
:102EE00016345C6080F82520002280F824200846F3
:102EF00010BD70B590F82520002401212346022A38
:102F000007D00422C26380F8251080F82430012401
:102F100029E00268156825F00E051560026815683D
:102F200025F001051560826C156825F48075156023
:102F300090F84420056C02F01F0201FA02F26A6068
:102F4000D0E913255560426D32B1156825F48075BE
:102F50001560D0E91625556080F8251080F82430DA
:102F6000816B01B18847204670BD000070B50446F2
:102F700000F03CF90546601C02D004484068044457
:102F800000F034F9401BA042FAD370BD1C000020B1
:102F90002DE9F04FDFF82092002301260324A9F148
:102FA000040B85B00F2709F1040AABF1040EFAE017
:102FB00006FA03F52A407CD091F804C00CF0030C0B
:102FC000BCF1010F02D0BCF1020F26D1D0F808C02D
:102FD000CDF800C04FEA430C04FA0CF8CDF810C04D
:102FE000DDF800C02CEA080CCDF800C0D1F80C8048
:102FF000DDF810C008FA0CF8DDF800C048EA0C084B
:10300000C0F80880D0F804C02CEA050C0D79C5F38F
:1030100000159D4045EA0C0545600D79ED43AD076F
:103020000ED0C5684FEA430804FA08FC25EA0C05EF
:10303000D1F808C00CFA08FC4CEA050CC0F80CC02A
:103040000D7905F00305022D16D1DD0800EB850C86
:10305000CDF808C0DCF820805D074FEAD56C07FA90
:103060000CF528EA05080D6905FA0CF5DDF808C02D
:1030700045EA0805CCF8205005684FEA430CCDF826
:1030800008C004FA0CFC25EA0C0591F804C00CF009
:103090000308DDF808C008FA0CF848EA0508C0F88B
:1030A00000804D6815F4403F7CD0444DD5F860C099
:1030B00000E077E04CF0010CC5F860C02D6E23F005
:1030C000030C05F0010500953D4D65440295AD6882
:1030D0004FEA837C4FEA1C7807FA08FC25EA0C05C6
:1030E000B0F1904F06D0DFF8DCC0604505D14FF05D
:1030F000010C20E04FF0000C1DE0DFF8CCC0604573
:1031000002D14FF0020C16E0DFF8C0C0604502D1DA
:103110004FF0030C0FE0DFF8B8C0604502D14FF06C
:10312000040C08E0DFF8ACC0604502D14FF0050C9C
:1031300001E04FF0060C0CFA08FC4CEA050C029D6D
:10314000C5F808C0D9F80050CC46D1F804809543A2
:103150005FEAC82800D51543CCF80050DAF80050D3
:10316000D446D1F8048095435FEA882800D51543FA
:10317000CCF80050DBF80050DC46D1F804809543D1
:103180005FEA883800D51543CCF80050DEF80050CF
:10319000F446D1F8048095435FEAC83800D515435A
:1031A000CCF800505B1C0A6832FA03F57FF400AFDC
:1031B00005B0BDE8F08F0000080401400010024097
:1031C000000001400004004800080048000C0048CE
:1031D00000100048001400480069084000D0012099
:1031E00070470AB181617047816270470148806809
:1031F000704700001C0000200248816842681144AA
:10320000816070471C00002010B50024032000F0EE
:1032100073F80F2000F008F808B1012401E000F075
:1032200025F8204610BD000070B50E4E054600245E
:10323000706898B14FF47A71B1FBF0F00A490968EF
:10324000B1FBF0F000F060FD40B9102D06D2002275
:103250002946501E00F030F8356000E00124204679
:1032600070BD00001C000020280000200A4882B029
:10327000016E41F001010166016E01F00101009152
:10328000816D41F080518165806D00F0805000902B
:1032900002B000F0A1B8000000100240002809DBD5
:1032A00000F01F02012191404009800000F1E02060
:1032B000C0F8001170470000F0B40E4B1B680C46BC
:1032C000C3F30223C3F10705042D00D90425191DFA
:1032D000072901D2002300E0DB1E012606FA05F1D2
:1032E000491E214099409E40761E16403143F0BC55
:1032F00003F021B80CED00E0064900F00702086871
:103300004FF6FF03184040EA0220034A10430860CA
:10331000704700000CED00E00000FA052B492C4B33
:103320000A6832214A432B4940B1B0F5007F086852
:1033300029D020F4C06040F480602CE00868C0F31D
:103340004120022804D051F8800F20F4807022E040
:10335000D1F8800020F48070C1F88000086820F463
:10336000C06040F400700860B2FBF3F0401C00E065
:10337000401E4A69520501D50028F9D14869400527
:103380000AD503207047C0F34120022806D051F827
:10339000800F40F48070086000207047D1F88000F2
:1033A00040F48070C1F88000086820F4C06040F4E8
:1033B00000700860B2FBF3F0401C00E0401E4A6958
:1033C0005205DBD50028F9D1D8E7000028000020FD
:1033D00040420F00007000400248816841F4804183
:1033E00081607047007000402DE9F8430446006892
:1033F00000269D4D00035ED5A86D0027C00008D4AF
:10340000A86D40F08050A865A86D012700F080509D
:103410000090DFF85892D9F8001041F48071C9F893
:103420000010FFF7E3FE804606E000BFFFF7DEFE78
:10343000A0EB080002282BD8D9F80000C005F5D56C
:10344000D5F8900010F4407014D0216C814211D056
:10345000D5F89000D5F8901020F4407041F48031F8
:10346000C5F89010D5F8901021F48031C5F890106F
:10347000C5F89000C00711D0FFF7B8FE804641F2B2
:10348000883907E0FFF7B2FEA0EB0801494501D9F2
:1034900003260BE0D5F890008007F3D5D5F890000F
:1034A000216C20F440700843C5F890001FB1A86D4E
:1034B00020F08050A8652078C00707D0D5F8880094
:1034C000616820F003000843C5F888002078800771
:1034D00007D5D5F88800A16820F00C000843C5F88E
:1034E00088002078400707D5D5F88800E16820F0EB
:1034F00030000843C5F888002078000707D5D5F8C4
:103500008800216920F0C0000843C5F888002078B1
:10351000800607D5D5F88800616920F4406008432B
:10352000C5F888002078400607D5D5F88800A1693D
:1035300020F440500843C5F888002078000607D5DD
:10354000D5F88800E16920F440400843C5F88800B8
:103550002088C00507D5D5F88800216A20F44030BE
:103560000843C5F888002088800507D5D5F888006D
:10357000616A20F440200843C5F88800208840058F
:103580000FD5D5F88800A16A20F440100843C5F88B
:103590008800A06AB0F5801F03D1E86840F480106D
:1035A000E860208800050FD5D5F88800E16A20F48E
:1035B00040000843C5F88800E06AB0F5800F03D1E9
:1035C000E86840F48010E8602088C0040FD5D5F882
:1035D0008800216B20F040700843C5F88800206BFC
:1035E000B0F1807F03D1E86840F48010E860208863
:1035F0004FF0006180040ED5D5F88800626B20F092
:1036000040601043C5F88800606B884203D1E868C9
:1036100040F48010E860208840040ED5D5F888007A
:10362000A26B20F040601043C5F88800A06B884270
:1036300003D1E86840F48010E860208800040FD5CA
:10364000D5F88800E16B20F040500843C5F88800A9
:10365000E06BB0F1805F03D1E86840F48030E8604F
:103660003046BDE8F88300000010024000700040C2
:103670002DE9F0470E4605004FF0000725D0DFF892
:10368000AC81D8F8000000F00F00B0420CD2D8F89E
:10369000001021F00F013143C8F80010D8F80000E5
:1036A00000F00F00B04210D12968614CC80741F208
:1036B000883A5AD06868DFF87C91032808D002283D
:1036C00020682DD0400500282CDB0120BDE8F087C4
:1036D00020688001F9D5E06800F00302E068C0F3DB
:1036E0000310401C032A19D0534A00BFB2FBF0F06C
:1036F000E268C2F306225043E268C2F34162521C00
:103700005200B0FBF2F0484517D9A06810F0F00F56
:103710000CD0880711D5A86840B10EE0474AE5E70C
:103720008003D0E700F0B6F8484506D9A06820F03D
:10373000F00040F08000A0608027A068696820F059
:1037400003000843A060FFF751FD814606E000BF7B
:10375000FFF74CFDA0EB090151453AD8A068696814
:1037600000F00C00B0EB810FF2D12868810714D56E
:10377000400703D5A06840F4E060A0602878000707
:1037800005D5A06820F4605040F4E060A060A06817
:10379000A96820F0F000084304E0802F03D1A0685E
:1037A00020F0F000A060D8F80010404601F00F01B2
:1037B000B14216D9016821F00F0131430160FFF7D2
:1037C00015FD074607E000BFFFF710FDC11B51457F
:1037D00001D903207AE7D8F8000000F00F00B042CA
:1037E000F2D12878400705D5A068E96820F4E060A8
:1037F0000843A0602878000706D5A068296920F44E
:10380000605040EAC100A06000F044F8A1680C4A92
:10381000C1F30311515C01F01F01C8400949086060
:1038200009480068BDE8F047FFF7FEBC00200240F1
:103830000010024000B4C4040024F40000366E01FD
:1038400090720008280000201C000020054806494E
:1038500000688968054AC1F30221515C01F01F012B
:10386000C84070472800002000100240A0720008E5
:103870000548064900688968054AC1F3C221515CC0
:1038800001F01F01C84070472800002000100240CE
:10389000A0720008184910B58868C0F38102174863
:1038A000012A0BD08A68164BC2F38102022A06D085
:1038B0008A68C2F38102032A03D0002010BD184693
:1038C00010BDCA6802F00304CA68C2F30312521C96
:1038D000032C02D0B0FBF2F001E0B3FBF2F0CA68B7
:1038E000C968C2F306225043C1F34161491C490033
:1038F000B0FBF1F010BD0000001002400024F40005
:1039000000366E012DE9F84304007AD02078F84D96
:10391000C00747D0A868E96800F00C0001F0030177
:103920000C2802D0082817D001E0032914D06068C1
:10393000B0F5803F17D0B0F5A02F286817D020F43D
:1039400080302860286820F4802028606068E0B11A
:10395000FFF74CFC064614E02868800322D5606817
:103960000028D2D01EE0286840F48030EDE740F413
:1039700080202860F7E700BFFFF738FC801B642831
:1039800070D828688003F7D50CE0FFF72FFC0646B7
:1039900005E000BFFFF72AFC801B6428F0D82868E8
:1039A0008003F7D4207880074CD5A868E96800F038
:1039B0000C0001F003010C2802D004280DD001E016
:1039C00002290AD0E068002828682BD040F48070D3
:1039D0002860FFF70BFC064619E02868400502D571
:1039E000E068002891D06868217C20F0FE4040EA21
:1039F00001606860BF480068FFF716FC002800D12E
:103A000020E072E1FFF7F2FB801B0228B8D828689B
:103A10004005F7D56868217C20F0FE4040EA01604F
:103A200068600FE020F480702860FFF7DFFB064637
:103A300005E000BFFFF7DAFB801B0228A0D828684A
:103A40004005F7D42078000729D560690028D5F80B
:103A5000940013D040F00100C5F89400FFF7C6FBB6
:103A6000064606E090E000BFFFF7C0FB801B02287F
:103A700086D8D5F894008007F6D510E020F0010034
:103A8000C5F89400FFF7B2FB064604E0FFF7AEFB73
:103A9000801B022878D8D5F894008007F6D42078C7
:103AA000400761D5A86D0026C00008D4A86D40F07D
:103AB0008050A865A86D012600F0805000908E48C7
:103AC0000168C90511D40168804641F48071016024
:103AD000FFF78CFB074604E0FFF788FBC01B0228BA
:103AE00052D8D8F80000C005F6D5A068012815D036
:103AF0000528D5F8900016D020F00100C5F89000F8
:103B0000D5F8900020F00400C5F89000A06841F2BC
:103B10008838B8B1FFF76AFB07460EE0D5F8900089
:103B200040F00100F0E740F00400C5F89000F5E730
:103B3000FFF75CFBC11B414526D8D5F890008007F4
:103B4000F6D50CE0FFF752FB074604E0FFF74EFB0B
:103B5000C11B414518D8D5F890008007F6D41EB196
:103B6000A86D20F08050A8652078800629D5A0692E
:103B70000028D5F8980013D040F00100C5F898004F
:103B8000FFF734FB064606E075E000BFFFF72EFBAB
:103B9000801B02286FD8D5F898008007F6D510E072
:103BA00020F00100C5F89800FFF720FB064604E06E
:103BB000FFF71CFB801B02285DD8D5F89800800712
:103BC000F6D4E069F0B3A968C1F3810103295DD09F
:103BD0000228286820F08070286003D0FFF706FBD9
:103BE00004464BE0FFF702FB064604E0FFF7FEFA4F
:103BF000801B02283FD828688001F7D4F4E9080127
:103C00006FF00F0202EB01110843218A52044908A8
:103C100002EB4151A26841EA02210843217D4FF0A5
:103C20007E42490802EB41610843217B40EAC160C2
:103C3000E968324A11400843E860286840F0807023
:103C4000286000E05EE0E86840F08070E860FFF720
:103C5000CDFA044605E000BFFFF7C8FA001B0228B2
:103C600009D828688001F7D54CE000BFFFF7BEFAFD
:103C7000001B022802D90320BDE8F88328688001D0
:103C8000F4D4E8681E490840E8603BE00128F3D01E
:103C9000E868226A00F00301914226D1616A00F0CF
:103CA000F0020901103991421FD1A26A00F4FE41CD
:103CB000B1EB022F19D194F82C2000F07841B1EB30
:103CC000C26F12D1218E00F4C00249084905A1F546
:103CD0000011914209D194F8341000F0C0604908F5
:103CE0004906A1F1007181420CD00120C4E7000017
:103CF000001002401C000020007000400C809F015A
:103D0000FCFFEEFE0020B7E710B5401EB0F1807F4B
:103D100001D3012010BD4FF0E02460610F21601736
:103D200002F009FB0020A06107202061002010BDE7
:103D3000704770477047704770477047F0B590F80C
:103D40003C20012A3AD0012580F83C50022280F81C
:103D50003D2003685A689C68194E1A4FB34201D03F
:103D6000BB4204D122F4700C4A6842EA0C02DFF82C
:103D700058C002EA0C02D1F800C04CEA020CC3F8A9
:103D800004C00268B2420DD0B2F1804F0AD00F4B8E
:103D90009A4207D00E4B9A4204D0BA4202D00D4B41
:103DA0009A4204D1896824F080031943916080F815
:103DB0003D50002180F83C100846F0BD0220F0BDC7
:103DC000002C0140003401408FFFFFFD0004004043
:103DD0000008004000400140704710B5040003D0C7
:103DE00094F83D0010B107E0012010BD002084F8D8
:103DF0003C00204600F022F8022084F83D00211DFE
:103E0000206801F05FFC012084F8480084F83E003F
:103E100084F83F0084F8400084F8410084F84200B0
:103E200084F8430084F8440084F8450084F8460090
:103E300084F8470084F83D00002010BD08B51E4AF4
:103E400001681E4891420ED1016E41F40061016685
:103E5000006E002200F40060009011461920FFF768
:103E60002BFA192013E0B1F1804F14D0144A91427B
:103E700020D1816D41F002018165806D002200F04A
:103E80000200009011461D20FFF716FA1D20BDE824
:103E90000840FFF703BA816D41F001018165806D33
:103EA000002200F00100009011461C20FFF704FAE8
:103EB0001C20ECE708BD0000002C0140001002406F
:103EC0000004004090F83D10012901D00120704706
:103ED000022180F83D100168CA6842F00102CA6000
:103EE0000068104988420ED0B0F1804F0BD00E49C7
:103EF000884208D00D49884205D00D49884202D039
:103F00000C49884207D181680B4A1140062906D026
:103F1000B1F5803F03D0016841F00101016000204C
:103F200070470000002C01400004004000080040E1
:103F300000340140004001400700010070B5044614
:103F400090F83C000025012814D0012684F83C603C
:103F5000022084F83D0022689068364B184020F417
:103F60007F409060086870282ED010DC10F00F0F92
:103F700003D021E04FF0020070BD4FEA2012072A63
:103F80001AD2DFE802F0525252524A3840002A4B0D
:103F9000C21A984249D009DCB0F5805F0DD0B0F567
:103FA000005F1CD0B0F1101F06D13EE0102A3CD0BB
:103FB000202A3AD0502A38D0012584F83D600020CC
:103FC00084F83C00284670BDCB68D1E90121206807
:103FD00001F0D6FB2068816841F0770109E0CB68E9
:103FE000D1E90121206801F0CBFB2068816841F410
:103FF00080418160E1E7CA684968206801F0D4FB2C
:104000005021206806E0CA684968206801F0DDFB9D
:104010006021206801F0BEFBCFE7CA6849682068CC
:1040200001F0C2FB40212068F4E7226801461046F7
:10403000F0E7000088FFCEFF2000100070472DE958
:10404000F04104460068C66805694FF00007A907FB
:1040500013D5B10711D5F91E016101202077206821
:1040600080698007204602D0FFF7E8FF04E000F0F7
:10407000B7F8204600F0B5F82777680716D570071F
:1040800014D521686FF004000861022020772068B1
:10409000806910F4407F204602D0FFF7CFFF04E094
:1040A00000F09EF8204600F09CF82777280715D5E9
:1040B000300713D521686FF00800086104202077CD
:1040C0002068C0698007204602D0FFF7B7FF04E0F0
:1040D00000F086F8204600F084F82777E80616D529
:1040E000F00614D521686FF01000086108202077D1
:1040F0002068C06910F4407F204602D0FFF79EFF81
:1041000004E000F06DF8204600F06BF82777E80730
:1041100008D0F00706D021686FF001000861204642
:1041200000F060F8280601D4A80408D5300606D5AA
:1041300021686FF4025008612046FFF7FAFDE80598
:1041400008D5300606D521686FF4807008612046D6
:10415000FFF7EEFD680608D5700606D521686FF0FA
:1041600040000861204600F0ADF8A80608D5B0066A
:1041700006D521686FF0200008612046FFF7DAFDC0
:10418000E80208D5F00206D521686FF480100861B6
:104190002046FFF7D1FDA80208D5B00206D5216858
:1041A0006FF4001008612046FFF7C5FD680208D5CE
:1041B000700206D521686FF4800008612046FFF781
:1041C000BCFD28020AD5300208D521686FF4000032
:1041D00008612046BDE8F041FFF7FEBDBDE8F08173
:1041E000704770472DE9F0410646006830490125C7
:1041F00088424DD12F4F01213846FEF7EDFF00B127
:1042000001202D4C022120713846FEF7E5FF00B158
:104210000120607204213846FEF7DEFF00B1012064
:10422000A07301214FF09040FEF7D6FF00B10120AE
:104230000021E0744FEA010201EB8100235C23B10D
:10424000012B08D0022B20D10EE003191F79E7B90A
:1042500025545A7019E003191B79012B02D002234F
:10426000235412E0225410E003191F79012F07D0C4
:104270005F787F1CFFB25F70502F06D9DD70F1E7C9
:1042800022545878502800D89D70491C0429D3DB4B
:1042900031680A48B1F1804F08D0094A914203D1F0
:1042A000417881F001014170BDE8F0810570FBE7C4
:1042B0000004004000040048880200203200002072
:1042C000002C0140704790F88410012918D001217A
:1042D00080F884102421C0F8881001680A680B68EF
:1042E00023F001030B6022F00051002242660368B4
:1042F00019602021C0F8881080F88420104670478B
:10430000022070477047704770B5044690F88400EB
:1043100001281DD0012084F884002420C4F88800DE
:1043200020680568026822F0010202602068826845
:1043300022F060620A438260204601F059FA206848
:1043400005602020C4F88800002084F8840070BD37
:10435000022070BD70B5044690F8840001281DD07D
:10436000012084F884002420C4F8880020680568AF
:10437000026822F0010202602068826822F0604236
:104380000A438260204601F033FA2068056020204D
:10439000C4F88800002084F8840070BD022070BD3D
:1043A00070477047704700002DE9F04103680446EC
:1043B000D86919689A6840F60F0528424FF0000541
:1043C0004FF002060AD187067ED501F0200702F0E1
:1043D000805C57EA0C0777D0616F3AE1B24FDFF8A3
:1043E000CCC2174001EA0C0C57EA0C0C6CD05FEA07
:1043F000C07C0CD05FEAC15C09D54FF0010CC3F85A
:1044000020C0D4F8903043F00103C4F89030830703
:1044100009D5D30707D023681E62D4F8903043F043
:104420000403C4F8903043070AD5D30708D02668A0
:1044300004233362D4F8903043F00203C4F8903080
:1044400003070CD501F020033B4308D0266808235E
:104450003362D4F8903043F00803C4F89030030579
:104460000BD54B0109D526684FF400633362D4F8AD
:10447000903043F02003C4F89030D4F89030002BF3
:104480003DD0800609D501F0200002F0805108439C
:1044900003D0616F09B120468847D4F890002168A5
:1044A0008968490602D410F0280F2AD0204601F06E
:1044B00085FA2068806840061ED52068083050E8DC
:1044C000001F21F0400100E021E040E80012002A36
:1044D000F3D1D4F8800078B175498163D4F88000B5
:1044E000FEF707FD00280AD0D4F88000816B00E0B9
:1044F0002046BDE8F04108472046FFF753FFBDE8DE
:10450000F0812046FFF74EFFC4F89050F7E7D4F84B
:104510006CC02027BCF1010F7ED15FEAC06C7BD557
:104520005FEAC16C78D51020186220688068400668
:1045300045D5D4F88010086840680004000CDED02F
:10454000B4F85C208242DAD9A4F85E0008680068FA
:1045500080062CD4216851E8000F20F4807041E8D7
:104560000002002AF6D12068083050E8001F21F030
:10457000010140E80012002AF5D12068083050E817
:10458000001F21F0400140E80012002AF5D1C4F8D4
:104590008C70E566206850E8001F21F0100140E8AB
:1045A0000012002AF6D1D4F88000FEF76DFC2667D1
:1045B000B4F85C00B4F85E10401A81B230E0B4F890
:1045C0005C00B4F85E10401A81B2B4F85E000028B6
:1045D00095D0002993D0226852E8000F20F4907003
:1045E00042E80003002BF6D12F4BDB432068083054
:1045F00050E8002F1A4040E8002CBCF1000FF5D124
:10460000C4F88C70E5666567226852E8000F20F0F8
:10461000100042E8000300E006E0002BF4D126671A
:104620002046FFF76FFE6AE7C60209D5560207D596
:104630004FF4801018622046BDE8F041FFF7B1BE8C
:1046400003060AD501F0800302F40002134304D0EC
:10465000A16F00297FF44CAF51E7420611D54A06FD
:104660000FD52046026852E8001F21F0400142E8C1
:104670000013002BF6D1C0F88870856700F03BF975
:104680003DE7020206D54A0004D52046BDE8F041C8
:10469000FFF786BEC001C6D50029C4DA2046BDE8B2
:1046A000F041FFF730BE00000100001020010004BF
:1046B000A959000810B5040003D0D4F8880010B13F
:1046C00007E0012010BD002084F88400204600F09F
:1046D00027F82420C4F888002068016821F001012F
:1046E0000160A06A10B1204601F0A4F8204601F054
:1046F000F7FB0128E6D02068416821F49041416031
:104700002068816821F02A0181602068016841F0F9
:10471000010101602046BDE8104001F0EFB8000043
:1047200010B598B00446142111A8FBF78AFF442164
:104730006846FBF786FF1B492068884230D101207C
:104740000024CDE900046846FEF74EFE08B1FDF7EF
:1047500031FF1548016E41F480410166016E01F49C
:1047600080411691C16C41F00101C164C06C11A976
:1047700000F0010016904FF4C06011900220CDE9C6
:1047800012040720CDE914404FF09040FEF700FCE2
:10479000002211462520FEF78FFD2520FEF77EFD25
:1047A00018B010BD003801400010024030B4D0F8FD
:1047B0008C30202B02D0022030BC7047A9B1A2B1AE
:1047C0000023C3660A4C0368A3420BD05B681B023C
:1047D00008D5046854E8003F43F0806344E800359E
:1047E000002DF6D130BC01F0B5BC0120E4E700009B
:1047F0000080004010B500680F49884215D10122A1
:104800000E490F48FFF7D2FF0C480E4B401FC178EE
:1048100042795A54491CCAB2C2701B7801216B2BD1
:1048200004D00171102A00D1817010BD00230371E2
:10483000052AF9D010BD00000038014037000020E3
:10484000F40100209C0200202DE9F8430446D0F832
:104850008800984616460D46202802D00220BDE862
:10486000F883A5B19EB10020C4F890002120C4F8BF
:1048700088001834FEF7BAFCA6878146E68754F80C
:10488000100C2027183CB0F5805F02D003E0012017
:10489000E5E7206910B12E46002510E000260EE065
:1048A0008021204601F0DEFCC0B9DEB116F8010B14
:1048B00021688862B4F85600401EA4F85600B4F887
:1048C00056004B464FF00002CDF800800028E7D19B
:1048D0004FF04001204601F0C5FC40B1C4F888709B
:1048E0000320BCE735F8020BC0F30800E0E7C4F88A
:1048F00088700020B3E77047FEE7000000B585B080
:1049000014216846FBF79DFEC02000900120019015
:1049100002900220039069460248FEF739FB05B079
:1049200000BD00000004004870B50824002500F018
:104930003FFE13E06806050E002000F021FE142063
:1049400001F066FE142001F063FE012000F018FE65
:10495000142001F05DFE00F01FFE0543641EE4B26A
:10496000E8D2002000F00CFE142001F051FE00F00F
:1049700041FE284670BD70B50446082516E000F0DB
:10498000FFFD142001F044FE04F0800000F026FE3C
:10499000142001F03DFE6006040E142001F038FEE4
:1049A000012000F0EDFD142001F032FE6D1EEDB28D
:1049B0004FF00000E3D200F0E3FDBDE870401420AA
:1049C00001F026BE10B5012000F008FE142001F011
:1049D0001FFE142001F01CFE012000F0D1FD142068
:1049E00001F016FE002000F0CBFDBDE810401420C1
:1049F00001F00EBE10B5012000F0F0FD142001F012
:104A000007FE012000F0BCFD142001F001FE002093
:104A100000F0E4FD142001F0FBFD002000F0B0FDEB
:104A2000BDE81040142001F0F3BD10B5002000F0E7
:104A3000A7FD142001F0ECFD002000F0CFFD1420B4
:104A400001F0E6FD012000F09BFD142001F0E0FDE7
:104A5000012000F0C3FDBDE81040142001F0D8BDD6
:104A600010B5052400F0A4FD142001F0D1FD0120B3
:104A700000F086FD142001F0CBFD05E0641EA4B219
:104A8000142001F0C5FD6CB100F086FD0028F5D1C1
:104A900000F0B0FD002000F073FD142001F0B8FD1F
:104AA000002010BD00F0A6FDFFF7BFFF012010BDE4
:104AB00000B585B014216846FBF7C3FD4FF6FF70C3
:104AC000009000200321CDE90201019069460248CF
:104AD000FEF75EFA05B000BD0008004800B585B0DD
:104AE00014216846FBF7ADFD4FF6FF7000900120E2
:104AF0000190032003900020029069460248FEF7CF
:104B000047FA05B000BD00000008004870B5002459
:104B100006462146204600F003F900F041F94FF423
:104B20009635304600F010F9641CAC42F9D370BDE4
:104B300030B587B014216846FBF783FD1E48C16C71
:104B400041F00401C164C16C01F004010591C16C24
:104B500041F00101C164C16C01F001010591C16C1A
:104B600041F00201C164C06C012500F00200059013
:104B70004FF44870CDE9000500240394694602947F
:104B80000E48FEF705FA280203940090CDE901547F
:104B90004FF0904469462046FEF7FAF9FFF79EFF72
:104BA000A06940F48070A06104481830016841F4A5
:104BB0000871016007B030BD0010024000040048D9
:104BC000203AD2B2034B02EB420203EB021200F096
:104BD00019B80000A8720008F0B50E460746002577
:104BE00040F23F1407E021463846FFF7E9FF103C4A
:104BF0006D1CA4B2761C3278002A01D0142DF2D399
:104C0000F0BD00002DE9F04791468A460026044693
:104C100000F086F8DFF84080012700BF00F0C0F800
:104C20005FF0000539F8160007FA05F10842404622
:104C300001D1408800E0008800F086F86D1C102D3E
:104C4000F0D3641CE4B25146204600F069F8761CAB
:104C5000182EE3D3BDE8F0872C00002010B5FFF735
:104C600067FF002000F014F8084CA080A088A0F591
:104C70000241303906D000F081FB002000F008F836
:104C8000A08010BD00F0F1FAF7E700002C00002032
:104C900070B51D490A6842F400720A600A6842F45D
:104CA00080720A60184C103C226842F02002226098
:104CB000164A1060086840F02000086000BF00BF7E
:104CC00000BF206840F020002060206840F4807021
:104CD0002060FFF7EDFE4FF09041886A40F480704D
:104CE000886200BF00BF00BF0848001F006885B28F
:104CF000886940F480708861FFF7F0FE206840F416
:104D000000702060284670BD280400481408004840
:104D100001B5BDF800000149488008BD2C00002005
:104D200010B50C460146202000F068F82146BDE889
:104D30001040212000F062B801B5BDF80000014923
:104D4000088008BD2C000020134A116841F400714E
:104D50001160114910390B6843F480730B600B68C4
:104D600043F020030B600D4B1860106840F02000EA
:104D7000106000BF00BF00BF086840F0200008605E
:104D8000086840F48070086000BF00BF00BF08687A
:104D900040F4007008607047280400481408004878
:104DA0001449086840F400700860086840F4807096
:104DB000086010481038026842F0200202600E4B72
:104DC00022221A600A6842F020020A6000BF00BF77
:104DD00000BF016841F020010160016841F4807169
:104DE000016000BF00BF00BF016841F400710160B5
:104DF000704700002804004814080048184B10B5FC
:104E00001A6842F400721A601A6842F480721A60DA
:104E1000134A103A146844F020041460114C2060C6
:104E2000186840F02000186000BF00BF00BF106885
:104E300040F020001060106840F480701060216025
:104E4000186840F02000186000BF00BF00BF106865
:104E500040F020001060106840F48070106010BDB9
:104E6000280400481408004800EB8100006E00F0A0
:104E7000F84070478068C0F3C00070478068C0F396
:104E8000800070478068C0F380007047042303EA05
:104E9000D15310B518444369C1F3045107248C4021
:104EA000A3438A401343436110BD00EB8100016EB0
:104EB00021F00041114301667047000030B58BB00E
:104EC000002408940994202168460A94FBF7B9FB52
:104ED0001C484FF0A041042501604FF40031C0E9A7
:104EE0000114C4600461C0E90545047744770121D9
:104EF000016280F82440C462046380F83840C463CF
:104F000080F84040FDF7DAFD08B1FDF753FB08A932
:104F10000C480894FDF750FB08B1FDF74BFB0A481D
:104F200000900620CDE901047F200594CDE903051A
:104F300069460448FDF7ACFB002801D0FDF73AFBB9
:104F40000BB030BD380000200008302E30B589B0DD
:104F500020216846FBF775FB1948184900240160B9
:104F60004902C0E90114C46004250461C0E9054593
:104F7000047744770121016280F82440C46204630D
:104F800080F83840C46380F84040FDF797FD08B1D1
:104F9000FDF710FB0B4800900620CDE901047F20AF
:104FA0000594CDE9030569460548FDF771FB002826
:104FB00001D0FDF7FFFA09B030BD0000000100503C
:104FC000A40000200080F03E2DE9F04186B01421BD
:104FD0006846FBF736FB3648C16C41F00401C164FA
:104FE000C16C01F004010591C16C41F02001C16464
:104FF000C16C01F020010591C16C41F00101C16457
:10500000C16C01F001010591C16C41F00201C16464
:10501000C16C01F002010591C16C41F00801C1644D
:10502000C06C244E00F008004FF47F44059000222D
:1050300021463046FEF7D5F81F4F0022042138469E
:10504000FEF7CFF8DFF874800022C0214046FEF75B
:10505000C8F80125CDE90045002402946946304690
:105060000394FDF795FFCDE9005469464FF0904059
:105070000294FDF78DFF0720CDE900046946404604
:105080000294FDF785FF04200090CDE901546946A4
:1050900038460394FDF77CFFC0200090CDE9015411
:1050A000694640460394FDF773FF06B0BDE8F08102
:1050B0000010024000080048000C004800040048AE
:1050C00010B588B0002418480594069403940494FD
:1050D0000094019413490294016041F63F71C0E9C4
:1050E0000114C910C0E9031444618461FEF775FE20
:1050F00008B1FDF75FFA4FF48050039003A90A4806
:10510000FEF71CFF08B1FDF755FA009401946946BB
:1051100005480294FEF712FE002801D0FDF74AFA76
:1051200008B010BD002C01401001002010B588B05F
:105130000024174800940194029403940494059465
:105140004FF080410694016041F63F71C0E90114BF
:1051500042F20F71C0E903148461FEF73EFE08B10C
:10516000FDF728FA4FF48050009069460848FEF792
:10517000E5FE08B1FDF71EFA049404A9044806945C
:10518000FEF7DCFD002801D0FDF714FA08B010BDD1
:105190005C01002010B588B00024174800940194E9
:1051A00002940394049405941249069401604F21DB
:1051B000C0E9011442F20F71C0E903148461FEF7E3
:1051C0000CFE08B1FDF7F6F94FF4805000906946E7
:1051D0000948FEF7B3FE08B1FDF7ECF9049404A901
:1051E00005480694FEF7AAFD002801D0FDF7E2F974
:1051F00008B010BD00040040A8010020184810B5F8
:10520000164901604FF416514160002181600C2263
:10521000C160C0E904128161C161016241628162C1
:10522000FFF748FA08B1FDF7C5F900210C48FFF770
:1052300091F808B1FDF7BEF900210948FFF764F8BD
:1052400008B1FDF7B7F90648FFF73DF8002803D08D
:10525000BDE81040FDF7AEB910BD000000380140B8
:10526000F4010020FEE7FEE7704730B50121002081
:10527000FFF7C4FD4FF47A70FDF770F900210120AB
:10528000FFF7BCFD41F290711020FFF7B7FD4FF41E
:105290001C516020FFF7B2FD01216120FFF7AEFD38
:1052A00002214620FFF7AAFD48F210011320FFF764
:1052B000A5FD48F2FE011220FFF7A0FD4FF4A0610A
:1052C0000220FFF79BFD41F230010320FFF796FD1E
:1052D00040F2033421463020FFF790FD2146312073
:1052E000FFF78CFD21463220FFF788FDE51E294699
:1052F0003320FFF783FD03213420FFF77FFD214694
:105300003520FFF77BFD14213620FFF777FD21467E
:105310003720FFF773FD21463820FFF76FFD214648
:105320003920FFF76BFD29463A20FFF767FD03217F
:105330003B20FFF763FD21463C20FFF75FFD4FF464
:10534000A0513D20FFF75AFD4FF400719220FFF766
:1053500055FD21469320FFF751FD40F60D019020A9
:10536000FFF74CFD41F218010320FFF747FDBDE8B0
:10537000304040F273110720FFF740BD10B543F2F3
:105380000801E320FFF73AFD1221E720FFF736FD81
:1053900041F23121EF20FFF731FD00210120FFF71D
:1053A0002DFD4FF4E0610220FFF728FD41F23001AE
:1053B0000320FFF723FD00210420FFF71FFD40F22B
:1053C00007210820FFF71AFD00210920FFF716FD2D
:1053D00000210A20FFF712FD00210C20FFF70EFD2F
:1053E00000210D20FFF70AFD00210F20FFF706FD29
:1053F00000211020FFF702FD07211120FFF7FEFC1E
:1054000000211220FFF7FAFC00211320FFF7F6FC21
:10541000C820FDF7ABFD41F290611020FFF7EEFCD4
:1054200040F227211120FFF7E9FC3220FDF79EFD15
:105430001D211220FFF7E2FC3220FDF797FD4FF40B
:1054400000611320FFF7DAFC14212920FFF7D6FCB6
:105450000B212B20FFF7D2FC3220FDF787FD002126
:105460002020FFF7CBFC00212120FFF7C7FC0721FC
:105470003020FFF7C3FC40F207713120FFF7BEFC7C
:1054800006213220FFF7BAFC40F204713520FFF705
:10549000B5FC41F604713620FFF7B0FC042137203B
:1054A000FFF7ACFC00213820FFF7A8FC40F20671A2
:1054B0003920FFF7A3FC40F201713C20FFF79EFC6E
:1054C0000F213D20FFF79AFC00215020FFF796FCAA
:1054D000EF215120FFF792FC00215220FFF78EFCB4
:1054E00040F23F115320FFF789FC4FF41C5160201C
:1054F000FFF784FC01216120FFF780FC00216A2076
:10550000FFF77CFC00218020FFF778FC0021812040
:10551000FFF774FC00218220FFF770FC002183203C
:10552000FFF76CFC00218420FFF768FC0021852038
:10553000FFF764FC10219020FFF760FC002192200F
:10554000FFF75CFC03219320FFF758FC4FF48871B0
:105550009520FFF753FC00219720FFF74FFC002117
:105560009820FFF74BFC41F218010320FFF746FC9F
:10557000BDE8104040F273110720FFF73FBC000068
:1055800008B1044801E003481030016841F04001CF
:10559000016070471804004810B580210348FDF7EA
:1055A0001BFE012800D0002010BD000000040048B0
:1055B00000B585B014216846FBF743F880200090C1
:1055C00000200190012002900220039069460248C9
:1055D000FDF7DEFC05B000BD0004004808B104483A
:1055E00001E003481030016841F08001016070471C
:1055F0001804004800B585B014216846FBF721F86F
:105600008020009011200190002002900220039041
:1056100069460248FDF7BCFC05B000BD0004004827
:105620007047FDF7E9BD00B593B038216846FBF738
:1056300008F814210EA8FBF704F84FF40070FDF7EA
:105640006DFE0220C1010391402104910121CDE9A9
:10565000080100900A21CDE90A1007900C900D90E6
:105660006846FEF74FF908B172B6FEE70F200E90BC
:1056700003200F90002010901190129002210EA88C
:10568000FDF7F6FF002801D072B6FEE713B000BDAB
:105690000248016841F470010160704788ED00E044
:1056A0000148FEF7CCBC0000100100200148FEF7C5
:1056B000C6BC00005C0100200148FEF7C0BC000031
:1056C000A80100202DE9F0430268264B264D274E05
:1056D000274C4FF08049984207D0484505D0A84252
:1056E00003D0B04201D0A04203D122F070074A6833
:1056F0003A43204FDFF880C0DFF8808098420DD019
:1057000048450BD0A84209D0B04207D0A04205D0EE
:10571000B84203D0604501D0404503D122F4407522
:10572000CA682A434D6922F080022A4302608A68CF
:10573000C2620A688262984207D0A04205D0B8428D
:1057400003D0604501D0404501D1096901630121C1
:1057500041610169C90703D0016921F001010161BB
:10576000BDE8F083002C0140000400400008004028
:105770000034014000400140004401400048014025
:1057800010B5846842EA032224F47F440A4322438A
:10579000826010BD8268034B1A400A4342F0070141
:1057A000816070478FFFCFFF10B5036A046A24F051
:1057B00001040462846924F0F00444EA021423F032
:1057C0000A020A438461026210BD10B5036A046ACA
:1057D00024F010040462846923F0A00324F47044CC
:1057E00044EA023243EA01118261016210BD000005
:1057F00030B5416EB9B1026891689268C1F34261F7
:105800000B4B520F9C5CE50003F10804A25CB5FB56
:10581000F2F2A0F86A205A5C615CD200B2FBF1F1AE
:10582000A0F8681030BD0121A0F86A10F8E7000068
:105830008072000890F82810090706D501684A68A8
:10584000836B22F400421A434A6090F82810C9077B
:1058500006D001684A68C36A22F400321A434A60DB
:1058600090F82810890706D501684A68036B22F46E
:1058700080321A434A6090F82810490706D501681B
:105880004A68436B22F480221A434A6090F8281039
:10589000C90606D501688A68C36B22F480521A4390
:1058A0008A6090F82810890606D501688A68036C1A
:1058B00022F400521A438A6090F82810490611D544
:1058C00001684A68436C22F480121A434A60416CB2
:1058D000B1F5801F06D101684A68836C22F4C002CA
:1058E0001A434A6090F82810090606D501684A68EC
:1058F000C06C22F4002202434A6070472DE9F8434D
:1059000000260446C0F89060FDF770FC80462068D1
:1059100000684FF0200500076FF07E4713D543461F
:10592000002229042046009700F09CFC58B1216811
:1059300051E8000F20F0800041E80002002AF6D173
:10594000C4F8885021E020680068400722D543460B
:1059500000224FF480012046009700F083FCC8B17C
:10596000216851E8000F20F4907041E80002002AFD
:10597000F6D12068083050E8001F21F0010140E80E
:105980000012002AF5D1C4F88C5084F884600320FA
:10599000BDE8F883C4F88850C4F88C5044F86C6FA4
:1059A000666026760020F3E710B5806A0021A0F833
:1059B0005E10A0F85610FEF7F5FC10BD10B5026899
:1059C00052E8001F21F4907142E80013002BF6D139
:1059D0000E4B0268083252E8001F194042E80014DA
:1059E000002CF6D1C16E012908D1016851E8002FC1
:1059F00022F0100241E80023002BF6D12021C0F84C
:105A00008C100021C166416710BD0000FEFFFFEF52
:105A100010B5B0F86020D0F88C300168222B04D08B
:105A2000886940F00800886110BD496A836D1140A3
:105A30001980816D891C8165B0F85E10491EA0F83F
:105A40005E10B0F85E100029EED1026852E8001F27
:105A500021F4907142E80013002BF6D1016808315F
:105A600051E8002F22F0010241E80023002BF5D17C
:105A70002021C0F88C10002141670167154B026896
:105A80009A420BD05268120208D5036853E8002FDF
:105A900022F0806243E80024002CF6D1C26E012A75
:105AA00002D0FEF7A7FE10BDC166026852E8001FD3
:105AB00021F0100142E80013002BF6D10168CA69F9
:105AC000D243D20601D410220A62B0F85C10FEF76D
:105AD00019FC10BD008000402DE9F0470446B0F8E5
